{
	"data": {
		"bytecode": {
			"linkReferences": {},
			"object": "608060405234801561001057600080fd5b50610d88806100206000396000f3fe608060405234801561001057600080fd5b50600436106100415760003560e01c80630211bc431461004657806304c075691461007b57806349698ad8146100ab575b600080fd5b610060600480360381019061005b9190610849565b6100c7565b604051610072969594939291906109e9565b60405180910390f35b61009560048036038101906100909190610849565b6101f5565b6040516100a29190610a51565b60405180910390f35b6100c560048036038101906100c091906107b2565b6103cf565b005b600081815481106100d757600080fd5b90600052602060002090600602016000915090508060000160009054906101000a900460ff16908060010154908060020160009054906101000a900460ff169080600301805461012690610ba5565b80601f016020809104026020016040519081016040528092919081815260200182805461015290610ba5565b801561019f5780601f106101745761010080835404028352916020019161019f565b820191906000526020600020905b81548152906001019060200180831161018257829003601f168201915b5050505050908060040160009054906101000a900473ffffffffffffffffffffffffffffffffffffffff16908060050160009054906101000a900473ffffffffffffffffffffffffffffffffffffffff16905086565b6101fd6105d5565b6000828154811061021157610210610c66565b5b90600052602060002090600602016040518060c00160405290816000820160009054906101000a900460ff16151515158152602001600182015481526020016002820160009054906101000a900460ff16600281111561027457610273610c08565b5b600281111561028657610285610c08565b5b815260200160038201805461029a90610ba5565b80601f01602080910402602001604051908101604052809291908181526020018280546102c690610ba5565b80156103135780601f106102e857610100808354040283529160200191610313565b820191906000526020600020905b8154815290600101906020018083116102f657829003601f168201915b505050505081526020016004820160009054906101000a900473ffffffffffffffffffffffffffffffffffffffff1673ffffffffffffffffffffffffffffffffffffffff1673ffffffffffffffffffffffffffffffffffffffff1681526020016005820160009054906101000a900473ffffffffffffffffffffffffffffffffffffffff1673ffffffffffffffffffffffffffffffffffffffff1673ffffffffffffffffffffffffffffffffffffffff16815250509050919050565b6103d76105d5565b818160600181905250828160a0019073ffffffffffffffffffffffffffffffffffffffff16908173ffffffffffffffffffffffffffffffffffffffff168152505083816020018181525050848160400190600281111561043a57610439610c08565b5b9081600281111561044e5761044d610c08565b5b8152505033816080019073ffffffffffffffffffffffffffffffffffffffff16908173ffffffffffffffffffffffffffffffffffffffff168152505085816000019015159081151581525050600081908060018154018082558091505060019003906000526020600020906006020160009091909190915060008201518160000160006101000a81548160ff0219169083151502179055506020820151816001015560408201518160020160006101000a81548160ff0219169083600281111561051b5761051a610c08565b5b0217905550606082015181600301908051906020019061053c92919061064b565b5060808201518160040160006101000a81548173ffffffffffffffffffffffffffffffffffffffff021916908373ffffffffffffffffffffffffffffffffffffffff16021790555060a08201518160050160006101000a81548173ffffffffffffffffffffffffffffffffffffffff021916908373ffffffffffffffffffffffffffffffffffffffff1602179055505050505050505050565b6040518060c00160405280600015158152602001600081526020016000600281111561060457610603610c08565b5b815260200160608152602001600073ffffffffffffffffffffffffffffffffffffffff168152602001600073ffffffffffffffffffffffffffffffffffffffff1681525090565b82805461065790610ba5565b90600052602060002090601f01602090048101928261067957600085556106c0565b82601f1061069257805160ff19168380011785556106c0565b828001600101855582156106c0579182015b828111156106bf5782518255916020019190600101906106a4565b5b5090506106cd91906106d1565b5090565b5b808211156106ea5760008160009055506001016106d2565b5090565b60006107016106fc84610a98565b610a73565b90508281526020810184848401111561071d5761071c610cc9565b5b610728848285610b63565b509392505050565b60008135905061073f81610cfd565b92915050565b60008135905061075481610d14565b92915050565b60008135905061076981610d2b565b92915050565b600082601f83011261078457610783610cc4565b5b81356107948482602086016106ee565b91505092915050565b6000813590506107ac81610d3b565b92915050565b600080600080600060a086880312156107ce576107cd610cd3565b5b60006107dc88828901610745565b95505060206107ed8882890161075a565b94505060406107fe8882890161079d565b935050606061080f88828901610730565b925050608086013567ffffffffffffffff8111156108305761082f610cce565b5b61083c8882890161076f565b9150509295509295909350565b60006020828403121561085f5761085e610cd3565b5b600061086d8482850161079d565b91505092915050565b61087f81610af6565b82525050565b61088e81610af6565b82525050565b61089d81610b08565b82525050565b6108ac81610b08565b82525050565b6108bb81610b51565b82525050565b6108ca81610b51565b82525050565b60006108db82610ac9565b6108e58185610ad4565b93506108f5818560208601610b72565b6108fe81610cd8565b840191505092915050565b600061091482610ac9565b61091e8185610ae5565b935061092e818560208601610b72565b61093781610cd8565b840191505092915050565b600060c08301600083015161095a6000860182610894565b50602083015161096d60208601826109cb565b50604083015161098060408601826108b2565b506060830151848203606086015261099882826108d0565b91505060808301516109ad6080860182610876565b5060a08301516109c060a0860182610876565b508091505092915050565b6109d481610b47565b82525050565b6109e381610b47565b82525050565b600060c0820190506109fe60008301896108a3565b610a0b60208301886109da565b610a1860408301876108c1565b8181036060830152610a2a8186610909565b9050610a396080830185610885565b610a4660a0830184610885565b979650505050505050565b60006020820190508181036000830152610a6b8184610942565b905092915050565b6000610a7d610a8e565b9050610a898282610bd7565b919050565b6000604051905090565b600067ffffffffffffffff821115610ab357610ab2610c95565b5b610abc82610cd8565b9050602081019050919050565b600081519050919050565b600082825260208201905092915050565b600082825260208201905092915050565b6000610b0182610b27565b9050919050565b60008115159050919050565b6000819050610b2282610ce9565b919050565b600073ffffffffffffffffffffffffffffffffffffffff82169050919050565b6000819050919050565b6000610b5c82610b14565b9050919050565b82818337600083830152505050565b60005b83811015610b90578082015181840152602081019050610b75565b83811115610b9f576000848401525b50505050565b60006002820490506001821680610bbd57607f821691505b60208210811415610bd157610bd0610c37565b5b50919050565b610be082610cd8565b810181811067ffffffffffffffff82111715610bff57610bfe610c95565b5b80604052505050565b7f4e487b7100000000000000000000000000000000000000000000000000000000600052602160045260246000fd5b7f4e487b7100000000000000000000000000000000000000000000000000000000600052602260045260246000fd5b7f4e487b7100000000000000000000000000000000000000000000000000000000600052603260045260246000fd5b7f4e487b7100000000000000000000000000000000000000000000000000000000600052604160045260246000fd5b600080fd5b600080fd5b600080fd5b600080fd5b6000601f19601f8301169050919050565b60038110610cfa57610cf9610c08565b5b50565b610d0681610af6565b8114610d1157600080fd5b50565b610d1d81610b08565b8114610d2857600080fd5b50565b60038110610d3857600080fd5b50565b610d4481610b47565b8114610d4f57600080fd5b5056fea26469706673582212201178dd51454739dca155c5ac4b89f1331e1d1820b08b870f08e19663d61040d564736f6c63430008060033",
			"opcodes": "PUSH1 0x80 PUSH1 0x40 MSTORE CALLVALUE DUP1 ISZERO PUSH2 0x10 JUMPI PUSH1 0x0 DUP1 REVERT JUMPDEST POP PUSH2 0xD88 DUP1 PUSH2 0x20 PUSH1 0x0 CODECOPY PUSH1 0x0 RETURN INVALID PUSH1 0x80 PUSH1 0x40 MSTORE CALLVALUE DUP1 ISZERO PUSH2 0x10 JUMPI PUSH1 0x0 DUP1 REVERT JUMPDEST POP PUSH1 0x4 CALLDATASIZE LT PUSH2 0x41 JUMPI PUSH1 0x0 CALLDATALOAD PUSH1 0xE0 SHR DUP1 PUSH4 0x211BC43 EQ PUSH2 0x46 JUMPI DUP1 PUSH4 0x4C07569 EQ PUSH2 0x7B JUMPI DUP1 PUSH4 0x49698AD8 EQ PUSH2 0xAB JUMPI JUMPDEST PUSH1 0x0 DUP1 REVERT JUMPDEST PUSH2 0x60 PUSH1 0x4 DUP1 CALLDATASIZE SUB DUP2 ADD SWAP1 PUSH2 0x5B SWAP2 SWAP1 PUSH2 0x849 JUMP JUMPDEST PUSH2 0xC7 JUMP JUMPDEST PUSH1 0x40 MLOAD PUSH2 0x72 SWAP7 SWAP6 SWAP5 SWAP4 SWAP3 SWAP2 SWAP1 PUSH2 0x9E9 JUMP JUMPDEST PUSH1 0x40 MLOAD DUP1 SWAP2 SUB SWAP1 RETURN JUMPDEST PUSH2 0x95 PUSH1 0x4 DUP1 CALLDATASIZE SUB DUP2 ADD SWAP1 PUSH2 0x90 SWAP2 SWAP1 PUSH2 0x849 JUMP JUMPDEST PUSH2 0x1F5 JUMP JUMPDEST PUSH1 0x40 MLOAD PUSH2 0xA2 SWAP2 SWAP1 PUSH2 0xA51 JUMP JUMPDEST PUSH1 0x40 MLOAD DUP1 SWAP2 SUB SWAP1 RETURN JUMPDEST PUSH2 0xC5 PUSH1 0x4 DUP1 CALLDATASIZE SUB DUP2 ADD SWAP1 PUSH2 0xC0 SWAP2 SWAP1 PUSH2 0x7B2 JUMP JUMPDEST PUSH2 0x3CF JUMP JUMPDEST STOP JUMPDEST PUSH1 0x0 DUP2 DUP2 SLOAD DUP2 LT PUSH2 0xD7 JUMPI PUSH1 0x0 DUP1 REVERT JUMPDEST SWAP1 PUSH1 0x0 MSTORE PUSH1 0x20 PUSH1 0x0 KECCAK256 SWAP1 PUSH1 0x6 MUL ADD PUSH1 0x0 SWAP2 POP SWAP1 POP DUP1 PUSH1 0x0 ADD PUSH1 0x0 SWAP1 SLOAD SWAP1 PUSH2 0x100 EXP SWAP1 DIV PUSH1 0xFF AND SWAP1 DUP1 PUSH1 0x1 ADD SLOAD SWAP1 DUP1 PUSH1 0x2 ADD PUSH1 0x0 SWAP1 SLOAD SWAP1 PUSH2 0x100 EXP SWAP1 DIV PUSH1 0xFF AND SWAP1 DUP1 PUSH1 0x3 ADD DUP1 SLOAD PUSH2 0x126 SWAP1 PUSH2 0xBA5 JUMP JUMPDEST DUP1 PUSH1 0x1F ADD PUSH1 0x20 DUP1 SWAP2 DIV MUL PUSH1 0x20 ADD PUSH1 0x40 MLOAD SWAP1 DUP2 ADD PUSH1 0x40 MSTORE DUP1 SWAP3 SWAP2 SWAP1 DUP2 DUP2 MSTORE PUSH1 0x20 ADD DUP3 DUP1 SLOAD PUSH2 0x152 SWAP1 PUSH2 0xBA5 JUMP JUMPDEST DUP1 ISZERO PUSH2 0x19F JUMPI DUP1 PUSH1 0x1F LT PUSH2 0x174 JUMPI PUSH2 0x100 DUP1 DUP4 SLOAD DIV MUL DUP4 MSTORE SWAP2 PUSH1 0x20 ADD SWAP2 PUSH2 0x19F JUMP JUMPDEST DUP3 ADD SWAP2 SWAP1 PUSH1 0x0 MSTORE PUSH1 0x20 PUSH1 0x0 KECCAK256 SWAP1 JUMPDEST DUP2 SLOAD DUP2 MSTORE SWAP1 PUSH1 0x1 ADD SWAP1 PUSH1 0x20 ADD DUP1 DUP4 GT PUSH2 0x182 JUMPI DUP3 SWAP1 SUB PUSH1 0x1F AND DUP3 ADD SWAP2 JUMPDEST POP POP POP POP POP SWAP1 DUP1 PUSH1 0x4 ADD PUSH1 0x0 SWAP1 SLOAD SWAP1 PUSH2 0x100 EXP SWAP1 DIV PUSH20 0xFFFFFFFFFFFFFFFFFFFFFFFFFFFFFFFFFFFFFFFF AND SWAP1 DUP1 PUSH1 0x5 ADD PUSH1 0x0 SWAP1 SLOAD SWAP1 PUSH2 0x100 EXP SWAP1 DIV PUSH20 0xFFFFFFFFFFFFFFFFFFFFFFFFFFFFFFFFFFFFFFFF AND SWAP1 POP DUP7 JUMP JUMPDEST PUSH2 0x1FD PUSH2 0x5D5 JUMP JUMPDEST PUSH1 0x0 DUP3 DUP2 SLOAD DUP2 LT PUSH2 0x211 JUMPI PUSH2 0x210 PUSH2 0xC66 JUMP JUMPDEST JUMPDEST SWAP1 PUSH1 0x0 MSTORE PUSH1 0x20 PUSH1 0x0 KECCAK256 SWAP1 PUSH1 0x6 MUL ADD PUSH1 0x40 MLOAD DUP1 PUSH1 0xC0 ADD PUSH1 0x40 MSTORE SWAP1 DUP2 PUSH1 0x0 DUP3 ADD PUSH1 0x0 SWAP1 SLOAD SWAP1 PUSH2 0x100 EXP SWAP1 DIV PUSH1 0xFF AND ISZERO ISZERO ISZERO ISZERO DUP2 MSTORE PUSH1 0x20 ADD PUSH1 0x1 DUP3 ADD SLOAD DUP2 MSTORE PUSH1 0x20 ADD PUSH1 0x2 DUP3 ADD PUSH1 0x0 SWAP1 SLOAD SWAP1 PUSH2 0x100 EXP SWAP1 DIV PUSH1 0xFF AND PUSH1 0x2 DUP2 GT ISZERO PUSH2 0x274 JUMPI PUSH2 0x273 PUSH2 0xC08 JUMP JUMPDEST JUMPDEST PUSH1 0x2 DUP2 GT ISZERO PUSH2 0x286 JUMPI PUSH2 0x285 PUSH2 0xC08 JUMP JUMPDEST JUMPDEST DUP2 MSTORE PUSH1 0x20 ADD PUSH1 0x3 DUP3 ADD DUP1 SLOAD PUSH2 0x29A SWAP1 PUSH2 0xBA5 JUMP JUMPDEST DUP1 PUSH1 0x1F ADD PUSH1 0x20 DUP1 SWAP2 DIV MUL PUSH1 0x20 ADD PUSH1 0x40 MLOAD SWAP1 DUP2 ADD PUSH1 0x40 MSTORE DUP1 SWAP3 SWAP2 SWAP1 DUP2 DUP2 MSTORE PUSH1 0x20 ADD DUP3 DUP1 SLOAD PUSH2 0x2C6 SWAP1 PUSH2 0xBA5 JUMP JUMPDEST DUP1 ISZERO PUSH2 0x313 JUMPI DUP1 PUSH1 0x1F LT PUSH2 0x2E8 JUMPI PUSH2 0x100 DUP1 DUP4 SLOAD DIV MUL DUP4 MSTORE SWAP2 PUSH1 0x20 ADD SWAP2 PUSH2 0x313 JUMP JUMPDEST DUP3 ADD SWAP2 SWAP1 PUSH1 0x0 MSTORE PUSH1 0x20 PUSH1 0x0 KECCAK256 SWAP1 JUMPDEST DUP2 SLOAD DUP2 MSTORE SWAP1 PUSH1 0x1 ADD SWAP1 PUSH1 0x20 ADD DUP1 DUP4 GT PUSH2 0x2F6 JUMPI DUP3 SWAP1 SUB PUSH1 0x1F AND DUP3 ADD SWAP2 JUMPDEST POP POP POP POP POP DUP2 MSTORE PUSH1 0x20 ADD PUSH1 0x4 DUP3 ADD PUSH1 0x0 SWAP1 SLOAD SWAP1 PUSH2 0x100 EXP SWAP1 DIV PUSH20 0xFFFFFFFFFFFFFFFFFFFFFFFFFFFFFFFFFFFFFFFF AND PUSH20 0xFFFFFFFFFFFFFFFFFFFFFFFFFFFFFFFFFFFFFFFF AND PUSH20 0xFFFFFFFFFFFFFFFFFFFFFFFFFFFFFFFFFFFFFFFF AND DUP2 MSTORE PUSH1 0x20 ADD PUSH1 0x5 DUP3 ADD PUSH1 0x0 SWAP1 SLOAD SWAP1 PUSH2 0x100 EXP SWAP1 DIV PUSH20 0xFFFFFFFFFFFFFFFFFFFFFFFFFFFFFFFFFFFFFFFF AND PUSH20 0xFFFFFFFFFFFFFFFFFFFFFFFFFFFFFFFFFFFFFFFF AND PUSH20 0xFFFFFFFFFFFFFFFFFFFFFFFFFFFFFFFFFFFFFFFF AND DUP2 MSTORE POP POP SWAP1 POP SWAP2 SWAP1 POP JUMP JUMPDEST PUSH2 0x3D7 PUSH2 0x5D5 JUMP JUMPDEST DUP2 DUP2 PUSH1 0x60 ADD DUP2 SWAP1 MSTORE POP DUP3 DUP2 PUSH1 0xA0 ADD SWAP1 PUSH20 0xFFFFFFFFFFFFFFFFFFFFFFFFFFFFFFFFFFFFFFFF AND SWAP1 DUP2 PUSH20 0xFFFFFFFFFFFFFFFFFFFFFFFFFFFFFFFFFFFFFFFF AND DUP2 MSTORE POP POP DUP4 DUP2 PUSH1 0x20 ADD DUP2 DUP2 MSTORE POP POP DUP5 DUP2 PUSH1 0x40 ADD SWAP1 PUSH1 0x2 DUP2 GT ISZERO PUSH2 0x43A JUMPI PUSH2 0x439 PUSH2 0xC08 JUMP JUMPDEST JUMPDEST SWAP1 DUP2 PUSH1 0x2 DUP2 GT ISZERO PUSH2 0x44E JUMPI PUSH2 0x44D PUSH2 0xC08 JUMP JUMPDEST JUMPDEST DUP2 MSTORE POP POP CALLER DUP2 PUSH1 0x80 ADD SWAP1 PUSH20 0xFFFFFFFFFFFFFFFFFFFFFFFFFFFFFFFFFFFFFFFF AND SWAP1 DUP2 PUSH20 0xFFFFFFFFFFFFFFFFFFFFFFFFFFFFFFFFFFFFFFFF AND DUP2 MSTORE POP POP DUP6 DUP2 PUSH1 0x0 ADD SWAP1 ISZERO ISZERO SWAP1 DUP2 ISZERO ISZERO DUP2 MSTORE POP POP PUSH1 0x0 DUP2 SWAP1 DUP1 PUSH1 0x1 DUP2 SLOAD ADD DUP1 DUP3 SSTORE DUP1 SWAP2 POP POP PUSH1 0x1 SWAP1 SUB SWAP1 PUSH1 0x0 MSTORE PUSH1 0x20 PUSH1 0x0 KECCAK256 SWAP1 PUSH1 0x6 MUL ADD PUSH1 0x0 SWAP1 SWAP2 SWAP1 SWAP2 SWAP1 SWAP2 POP PUSH1 0x0 DUP3 ADD MLOAD DUP2 PUSH1 0x0 ADD PUSH1 0x0 PUSH2 0x100 EXP DUP2 SLOAD DUP2 PUSH1 0xFF MUL NOT AND SWAP1 DUP4 ISZERO ISZERO MUL OR SWAP1 SSTORE POP PUSH1 0x20 DUP3 ADD MLOAD DUP2 PUSH1 0x1 ADD SSTORE PUSH1 0x40 DUP3 ADD MLOAD DUP2 PUSH1 0x2 ADD PUSH1 0x0 PUSH2 0x100 EXP DUP2 SLOAD DUP2 PUSH1 0xFF MUL NOT AND SWAP1 DUP4 PUSH1 0x2 DUP2 GT ISZERO PUSH2 0x51B JUMPI PUSH2 0x51A PUSH2 0xC08 JUMP JUMPDEST JUMPDEST MUL OR SWAP1 SSTORE POP PUSH1 0x60 DUP3 ADD MLOAD DUP2 PUSH1 0x3 ADD SWAP1 DUP1 MLOAD SWAP1 PUSH1 0x20 ADD SWAP1 PUSH2 0x53C SWAP3 SWAP2 SWAP1 PUSH2 0x64B JUMP JUMPDEST POP PUSH1 0x80 DUP3 ADD MLOAD DUP2 PUSH1 0x4 ADD PUSH1 0x0 PUSH2 0x100 EXP DUP2 SLOAD DUP2 PUSH20 0xFFFFFFFFFFFFFFFFFFFFFFFFFFFFFFFFFFFFFFFF MUL NOT AND SWAP1 DUP4 PUSH20 0xFFFFFFFFFFFFFFFFFFFFFFFFFFFFFFFFFFFFFFFF AND MUL OR SWAP1 SSTORE POP PUSH1 0xA0 DUP3 ADD MLOAD DUP2 PUSH1 0x5 ADD PUSH1 0x0 PUSH2 0x100 EXP DUP2 SLOAD DUP2 PUSH20 0xFFFFFFFFFFFFFFFFFFFFFFFFFFFFFFFFFFFFFFFF MUL NOT AND SWAP1 DUP4 PUSH20 0xFFFFFFFFFFFFFFFFFFFFFFFFFFFFFFFFFFFFFFFF AND MUL OR SWAP1 SSTORE POP POP POP POP POP POP POP POP POP JUMP JUMPDEST PUSH1 0x40 MLOAD DUP1 PUSH1 0xC0 ADD PUSH1 0x40 MSTORE DUP1 PUSH1 0x0 ISZERO ISZERO DUP2 MSTORE PUSH1 0x20 ADD PUSH1 0x0 DUP2 MSTORE PUSH1 0x20 ADD PUSH1 0x0 PUSH1 0x2 DUP2 GT ISZERO PUSH2 0x604 JUMPI PUSH2 0x603 PUSH2 0xC08 JUMP JUMPDEST JUMPDEST DUP2 MSTORE PUSH1 0x20 ADD PUSH1 0x60 DUP2 MSTORE PUSH1 0x20 ADD PUSH1 0x0 PUSH20 0xFFFFFFFFFFFFFFFFFFFFFFFFFFFFFFFFFFFFFFFF AND DUP2 MSTORE PUSH1 0x20 ADD PUSH1 0x0 PUSH20 0xFFFFFFFFFFFFFFFFFFFFFFFFFFFFFFFFFFFFFFFF AND DUP2 MSTORE POP SWAP1 JUMP JUMPDEST DUP3 DUP1 SLOAD PUSH2 0x657 SWAP1 PUSH2 0xBA5 JUMP JUMPDEST SWAP1 PUSH1 0x0 MSTORE PUSH1 0x20 PUSH1 0x0 KECCAK256 SWAP1 PUSH1 0x1F ADD PUSH1 0x20 SWAP1 DIV DUP2 ADD SWAP3 DUP3 PUSH2 0x679 JUMPI PUSH1 0x0 DUP6 SSTORE PUSH2 0x6C0 JUMP JUMPDEST DUP3 PUSH1 0x1F LT PUSH2 0x692 JUMPI DUP1 MLOAD PUSH1 0xFF NOT AND DUP4 DUP1 ADD OR DUP6 SSTORE PUSH2 0x6C0 JUMP JUMPDEST DUP3 DUP1 ADD PUSH1 0x1 ADD DUP6 SSTORE DUP3 ISZERO PUSH2 0x6C0 JUMPI SWAP2 DUP3 ADD JUMPDEST DUP3 DUP2 GT ISZERO PUSH2 0x6BF JUMPI DUP3 MLOAD DUP3 SSTORE SWAP2 PUSH1 0x20 ADD SWAP2 SWAP1 PUSH1 0x1 ADD SWAP1 PUSH2 0x6A4 JUMP JUMPDEST JUMPDEST POP SWAP1 POP PUSH2 0x6CD SWAP2 SWAP1 PUSH2 0x6D1 JUMP JUMPDEST POP SWAP1 JUMP JUMPDEST JUMPDEST DUP1 DUP3 GT ISZERO PUSH2 0x6EA JUMPI PUSH1 0x0 DUP2 PUSH1 0x0 SWAP1 SSTORE POP PUSH1 0x1 ADD PUSH2 0x6D2 JUMP JUMPDEST POP SWAP1 JUMP JUMPDEST PUSH1 0x0 PUSH2 0x701 PUSH2 0x6FC DUP5 PUSH2 0xA98 JUMP JUMPDEST PUSH2 0xA73 JUMP JUMPDEST SWAP1 POP DUP3 DUP2 MSTORE PUSH1 0x20 DUP2 ADD DUP5 DUP5 DUP5 ADD GT ISZERO PUSH2 0x71D JUMPI PUSH2 0x71C PUSH2 0xCC9 JUMP JUMPDEST JUMPDEST PUSH2 0x728 DUP5 DUP3 DUP6 PUSH2 0xB63 JUMP JUMPDEST POP SWAP4 SWAP3 POP POP POP JUMP JUMPDEST PUSH1 0x0 DUP2 CALLDATALOAD SWAP1 POP PUSH2 0x73F DUP2 PUSH2 0xCFD JUMP JUMPDEST SWAP3 SWAP2 POP POP JUMP JUMPDEST PUSH1 0x0 DUP2 CALLDATALOAD SWAP1 POP PUSH2 0x754 DUP2 PUSH2 0xD14 JUMP JUMPDEST SWAP3 SWAP2 POP POP JUMP JUMPDEST PUSH1 0x0 DUP2 CALLDATALOAD SWAP1 POP PUSH2 0x769 DUP2 PUSH2 0xD2B JUMP JUMPDEST SWAP3 SWAP2 POP POP JUMP JUMPDEST PUSH1 0x0 DUP3 PUSH1 0x1F DUP4 ADD SLT PUSH2 0x784 JUMPI PUSH2 0x783 PUSH2 0xCC4 JUMP JUMPDEST JUMPDEST DUP2 CALLDATALOAD PUSH2 0x794 DUP5 DUP3 PUSH1 0x20 DUP7 ADD PUSH2 0x6EE JUMP JUMPDEST SWAP2 POP POP SWAP3 SWAP2 POP POP JUMP JUMPDEST PUSH1 0x0 DUP2 CALLDATALOAD SWAP1 POP PUSH2 0x7AC DUP2 PUSH2 0xD3B JUMP JUMPDEST SWAP3 SWAP2 POP POP JUMP JUMPDEST PUSH1 0x0 DUP1 PUSH1 0x0 DUP1 PUSH1 0x0 PUSH1 0xA0 DUP7 DUP9 SUB SLT ISZERO PUSH2 0x7CE JUMPI PUSH2 0x7CD PUSH2 0xCD3 JUMP JUMPDEST JUMPDEST PUSH1 0x0 PUSH2 0x7DC DUP9 DUP3 DUP10 ADD PUSH2 0x745 JUMP JUMPDEST SWAP6 POP POP PUSH1 0x20 PUSH2 0x7ED DUP9 DUP3 DUP10 ADD PUSH2 0x75A JUMP JUMPDEST SWAP5 POP POP PUSH1 0x40 PUSH2 0x7FE DUP9 DUP3 DUP10 ADD PUSH2 0x79D JUMP JUMPDEST SWAP4 POP POP PUSH1 0x60 PUSH2 0x80F DUP9 DUP3 DUP10 ADD PUSH2 0x730 JUMP JUMPDEST SWAP3 POP POP PUSH1 0x80 DUP7 ADD CALLDATALOAD PUSH8 0xFFFFFFFFFFFFFFFF DUP2 GT ISZERO PUSH2 0x830 JUMPI PUSH2 0x82F PUSH2 0xCCE JUMP JUMPDEST JUMPDEST PUSH2 0x83C DUP9 DUP3 DUP10 ADD PUSH2 0x76F JUMP JUMPDEST SWAP2 POP POP SWAP3 SWAP6 POP SWAP3 SWAP6 SWAP1 SWAP4 POP JUMP JUMPDEST PUSH1 0x0 PUSH1 0x20 DUP3 DUP5 SUB SLT ISZERO PUSH2 0x85F JUMPI PUSH2 0x85E PUSH2 0xCD3 JUMP JUMPDEST JUMPDEST PUSH1 0x0 PUSH2 0x86D DUP5 DUP3 DUP6 ADD PUSH2 0x79D JUMP JUMPDEST SWAP2 POP POP SWAP3 SWAP2 POP POP JUMP JUMPDEST PUSH2 0x87F DUP2 PUSH2 0xAF6 JUMP JUMPDEST DUP3 MSTORE POP POP JUMP JUMPDEST PUSH2 0x88E DUP2 PUSH2 0xAF6 JUMP JUMPDEST DUP3 MSTORE POP POP JUMP JUMPDEST PUSH2 0x89D DUP2 PUSH2 0xB08 JUMP JUMPDEST DUP3 MSTORE POP POP JUMP JUMPDEST PUSH2 0x8AC DUP2 PUSH2 0xB08 JUMP JUMPDEST DUP3 MSTORE POP POP JUMP JUMPDEST PUSH2 0x8BB DUP2 PUSH2 0xB51 JUMP JUMPDEST DUP3 MSTORE POP POP JUMP JUMPDEST PUSH2 0x8CA DUP2 PUSH2 0xB51 JUMP JUMPDEST DUP3 MSTORE POP POP JUMP JUMPDEST PUSH1 0x0 PUSH2 0x8DB DUP3 PUSH2 0xAC9 JUMP JUMPDEST PUSH2 0x8E5 DUP2 DUP6 PUSH2 0xAD4 JUMP JUMPDEST SWAP4 POP PUSH2 0x8F5 DUP2 DUP6 PUSH1 0x20 DUP7 ADD PUSH2 0xB72 JUMP JUMPDEST PUSH2 0x8FE DUP2 PUSH2 0xCD8 JUMP JUMPDEST DUP5 ADD SWAP2 POP POP SWAP3 SWAP2 POP POP JUMP JUMPDEST PUSH1 0x0 PUSH2 0x914 DUP3 PUSH2 0xAC9 JUMP JUMPDEST PUSH2 0x91E DUP2 DUP6 PUSH2 0xAE5 JUMP JUMPDEST SWAP4 POP PUSH2 0x92E DUP2 DUP6 PUSH1 0x20 DUP7 ADD PUSH2 0xB72 JUMP JUMPDEST PUSH2 0x937 DUP2 PUSH2 0xCD8 JUMP JUMPDEST DUP5 ADD SWAP2 POP POP SWAP3 SWAP2 POP POP JUMP JUMPDEST PUSH1 0x0 PUSH1 0xC0 DUP4 ADD PUSH1 0x0 DUP4 ADD MLOAD PUSH2 0x95A PUSH1 0x0 DUP7 ADD DUP3 PUSH2 0x894 JUMP JUMPDEST POP PUSH1 0x20 DUP4 ADD MLOAD PUSH2 0x96D PUSH1 0x20 DUP7 ADD DUP3 PUSH2 0x9CB JUMP JUMPDEST POP PUSH1 0x40 DUP4 ADD MLOAD PUSH2 0x980 PUSH1 0x40 DUP7 ADD DUP3 PUSH2 0x8B2 JUMP JUMPDEST POP PUSH1 0x60 DUP4 ADD MLOAD DUP5 DUP3 SUB PUSH1 0x60 DUP7 ADD MSTORE PUSH2 0x998 DUP3 DUP3 PUSH2 0x8D0 JUMP JUMPDEST SWAP2 POP POP PUSH1 0x80 DUP4 ADD MLOAD PUSH2 0x9AD PUSH1 0x80 DUP7 ADD DUP3 PUSH2 0x876 JUMP JUMPDEST POP PUSH1 0xA0 DUP4 ADD MLOAD PUSH2 0x9C0 PUSH1 0xA0 DUP7 ADD DUP3 PUSH2 0x876 JUMP JUMPDEST POP DUP1 SWAP2 POP POP SWAP3 SWAP2 POP POP JUMP JUMPDEST PUSH2 0x9D4 DUP2 PUSH2 0xB47 JUMP JUMPDEST DUP3 MSTORE POP POP JUMP JUMPDEST PUSH2 0x9E3 DUP2 PUSH2 0xB47 JUMP JUMPDEST DUP3 MSTORE POP POP JUMP JUMPDEST PUSH1 0x0 PUSH1 0xC0 DUP3 ADD SWAP1 POP PUSH2 0x9FE PUSH1 0x0 DUP4 ADD DUP10 PUSH2 0x8A3 JUMP JUMPDEST PUSH2 0xA0B PUSH1 0x20 DUP4 ADD DUP9 PUSH2 0x9DA JUMP JUMPDEST PUSH2 0xA18 PUSH1 0x40 DUP4 ADD DUP8 PUSH2 0x8C1 JUMP JUMPDEST DUP2 DUP2 SUB PUSH1 0x60 DUP4 ADD MSTORE PUSH2 0xA2A DUP2 DUP7 PUSH2 0x909 JUMP JUMPDEST SWAP1 POP PUSH2 0xA39 PUSH1 0x80 DUP4 ADD DUP6 PUSH2 0x885 JUMP JUMPDEST PUSH2 0xA46 PUSH1 0xA0 DUP4 ADD DUP5 PUSH2 0x885 JUMP JUMPDEST SWAP8 SWAP7 POP POP POP POP POP POP POP JUMP JUMPDEST PUSH1 0x0 PUSH1 0x20 DUP3 ADD SWAP1 POP DUP2 DUP2 SUB PUSH1 0x0 DUP4 ADD MSTORE PUSH2 0xA6B DUP2 DUP5 PUSH2 0x942 JUMP JUMPDEST SWAP1 POP SWAP3 SWAP2 POP POP JUMP JUMPDEST PUSH1 0x0 PUSH2 0xA7D PUSH2 0xA8E JUMP JUMPDEST SWAP1 POP PUSH2 0xA89 DUP3 DUP3 PUSH2 0xBD7 JUMP JUMPDEST SWAP2 SWAP1 POP JUMP JUMPDEST PUSH1 0x0 PUSH1 0x40 MLOAD SWAP1 POP SWAP1 JUMP JUMPDEST PUSH1 0x0 PUSH8 0xFFFFFFFFFFFFFFFF DUP3 GT ISZERO PUSH2 0xAB3 JUMPI PUSH2 0xAB2 PUSH2 0xC95 JUMP JUMPDEST JUMPDEST PUSH2 0xABC DUP3 PUSH2 0xCD8 JUMP JUMPDEST SWAP1 POP PUSH1 0x20 DUP2 ADD SWAP1 POP SWAP2 SWAP1 POP JUMP JUMPDEST PUSH1 0x0 DUP2 MLOAD SWAP1 POP SWAP2 SWAP1 POP JUMP JUMPDEST PUSH1 0x0 DUP3 DUP3 MSTORE PUSH1 0x20 DUP3 ADD SWAP1 POP SWAP3 SWAP2 POP POP JUMP JUMPDEST PUSH1 0x0 DUP3 DUP3 MSTORE PUSH1 0x20 DUP3 ADD SWAP1 POP SWAP3 SWAP2 POP POP JUMP JUMPDEST PUSH1 0x0 PUSH2 0xB01 DUP3 PUSH2 0xB27 JUMP JUMPDEST SWAP1 POP SWAP2 SWAP1 POP JUMP JUMPDEST PUSH1 0x0 DUP2 ISZERO ISZERO SWAP1 POP SWAP2 SWAP1 POP JUMP JUMPDEST PUSH1 0x0 DUP2 SWAP1 POP PUSH2 0xB22 DUP3 PUSH2 0xCE9 JUMP JUMPDEST SWAP2 SWAP1 POP JUMP JUMPDEST PUSH1 0x0 PUSH20 0xFFFFFFFFFFFFFFFFFFFFFFFFFFFFFFFFFFFFFFFF DUP3 AND SWAP1 POP SWAP2 SWAP1 POP JUMP JUMPDEST PUSH1 0x0 DUP2 SWAP1 POP SWAP2 SWAP1 POP JUMP JUMPDEST PUSH1 0x0 PUSH2 0xB5C DUP3 PUSH2 0xB14 JUMP JUMPDEST SWAP1 POP SWAP2 SWAP1 POP JUMP JUMPDEST DUP3 DUP2 DUP4 CALLDATACOPY PUSH1 0x0 DUP4 DUP4 ADD MSTORE POP POP POP JUMP JUMPDEST PUSH1 0x0 JUMPDEST DUP4 DUP2 LT ISZERO PUSH2 0xB90 JUMPI DUP1 DUP3 ADD MLOAD DUP2 DUP5 ADD MSTORE PUSH1 0x20 DUP2 ADD SWAP1 POP PUSH2 0xB75 JUMP JUMPDEST DUP4 DUP2 GT ISZERO PUSH2 0xB9F JUMPI PUSH1 0x0 DUP5 DUP5 ADD MSTORE JUMPDEST POP POP POP POP JUMP JUMPDEST PUSH1 0x0 PUSH1 0x2 DUP3 DIV SWAP1 POP PUSH1 0x1 DUP3 AND DUP1 PUSH2 0xBBD JUMPI PUSH1 0x7F DUP3 AND SWAP2 POP JUMPDEST PUSH1 0x20 DUP3 LT DUP2 EQ ISZERO PUSH2 0xBD1 JUMPI PUSH2 0xBD0 PUSH2 0xC37 JUMP JUMPDEST JUMPDEST POP SWAP2 SWAP1 POP JUMP JUMPDEST PUSH2 0xBE0 DUP3 PUSH2 0xCD8 JUMP JUMPDEST DUP2 ADD DUP2 DUP2 LT PUSH8 0xFFFFFFFFFFFFFFFF DUP3 GT OR ISZERO PUSH2 0xBFF JUMPI PUSH2 0xBFE PUSH2 0xC95 JUMP JUMPDEST JUMPDEST DUP1 PUSH1 0x40 MSTORE POP POP POP JUMP JUMPDEST PUSH32 0x4E487B7100000000000000000000000000000000000000000000000000000000 PUSH1 0x0 MSTORE PUSH1 0x21 PUSH1 0x4 MSTORE PUSH1 0x24 PUSH1 0x0 REVERT JUMPDEST PUSH32 0x4E487B7100000000000000000000000000000000000000000000000000000000 PUSH1 0x0 MSTORE PUSH1 0x22 PUSH1 0x4 MSTORE PUSH1 0x24 PUSH1 0x0 REVERT JUMPDEST PUSH32 0x4E487B7100000000000000000000000000000000000000000000000000000000 PUSH1 0x0 MSTORE PUSH1 0x32 PUSH1 0x4 MSTORE PUSH1 0x24 PUSH1 0x0 REVERT JUMPDEST PUSH32 0x4E487B7100000000000000000000000000000000000000000000000000000000 PUSH1 0x0 MSTORE PUSH1 0x41 PUSH1 0x4 MSTORE PUSH1 0x24 PUSH1 0x0 REVERT JUMPDEST PUSH1 0x0 DUP1 REVERT JUMPDEST PUSH1 0x0 DUP1 REVERT JUMPDEST PUSH1 0x0 DUP1 REVERT JUMPDEST PUSH1 0x0 DUP1 REVERT JUMPDEST PUSH1 0x0 PUSH1 0x1F NOT PUSH1 0x1F DUP4 ADD AND SWAP1 POP SWAP2 SWAP1 POP JUMP JUMPDEST PUSH1 0x3 DUP2 LT PUSH2 0xCFA JUMPI PUSH2 0xCF9 PUSH2 0xC08 JUMP JUMPDEST JUMPDEST POP JUMP JUMPDEST PUSH2 0xD06 DUP2 PUSH2 0xAF6 JUMP JUMPDEST DUP2 EQ PUSH2 0xD11 JUMPI PUSH1 0x0 DUP1 REVERT JUMPDEST POP JUMP JUMPDEST PUSH2 0xD1D DUP2 PUSH2 0xB08 JUMP JUMPDEST DUP2 EQ PUSH2 0xD28 JUMPI PUSH1 0x0 DUP1 REVERT JUMPDEST POP JUMP JUMPDEST PUSH1 0x3 DUP2 LT PUSH2 0xD38 JUMPI PUSH1 0x0 DUP1 REVERT JUMPDEST POP JUMP JUMPDEST PUSH2 0xD44 DUP2 PUSH2 0xB47 JUMP JUMPDEST DUP2 EQ PUSH2 0xD4F JUMPI PUSH1 0x0 DUP1 REVERT JUMPDEST POP JUMP INVALID LOG2 PUSH5 0x6970667358 0x22 SLT KECCAK256 GT PUSH25 0xDD51454739DCA155C5AC4B89F1331E1D1820B08B870F08E196 PUSH4 0xD61040D5 PUSH5 0x736F6C6343 STOP ADDMOD MOD STOP CALLER "
		},
		"gasEstimates": {
			"creation": {
				"codeDepositCost": "692800",
				"executionCost": "728",
				"totalCost": "693528"
			},
			"external": {
				"getBlock(uint256)": "infinite",
				"sendItem(bool,uint8,uint256,address,string)": "infinite",
				"transaction_array(uint256)": "infinite"
			}
		},
		"methodIdentifiers": {
			"getBlock(uint256)": "04c07569",
			"sendItem(bool,uint8,uint256,address,string)": "49698ad8",
			"transaction_array(uint256)": "0211bc43"
		}
	},
	"abi": [
		{
			"inputs": [
				{
					"internalType": "uint256",
					"name": "_index",
					"type": "uint256"
				}
			],
			"name": "getBlock",
			"outputs": [
				{
					"components": [
						{
							"internalType": "bool",
							"name": "Sustain_index",
							"type": "bool"
						},
						{
							"internalType": "uint256",
							"name": "quantity",
							"type": "uint256"
						},
						{
							"internalType": "enum amount_unit",
							"name": "unit",
							"type": "uint8"
						},
						{
							"internalType": "string",
							"name": "_type",
							"type": "string"
						},
						{
							"internalType": "address",
							"name": "sender",
							"type": "address"
						},
						{
							"internalType": "address",
							"name": "reciever",
							"type": "address"
						}
					],
					"internalType": "struct fashircleTransaction",
					"name": "_output",
					"type": "tuple"
				}
			],
			"stateMutability": "view",
			"type": "function"
		},
		{
			"inputs": [
				{
					"internalType": "bool",
					"name": "_sustain_index",
					"type": "bool"
				},
				{
					"internalType": "enum amount_unit",
					"name": "_unit",
					"type": "uint8"
				},
				{
					"internalType": "uint256",
					"name": "_quantity",
					"type": "uint256"
				},
				{
					"internalType": "address",
					"name": "_reciever",
					"type": "address"
				},
				{
					"internalType": "string",
					"name": "_type",
					"type": "string"
				}
			],
			"name": "sendItem",
			"outputs": [],
			"stateMutability": "nonpayable",
			"type": "function"
		},
		{
			"inputs": [
				{
					"internalType": "uint256",
					"name": "",
					"type": "uint256"
				}
			],
			"name": "transaction_array",
			"outputs": [
				{
					"internalType": "bool",
					"name": "Sustain_index",
					"type": "bool"
				},
				{
					"internalType": "uint256",
					"name": "quantity",
					"type": "uint256"
				},
				{
					"internalType": "enum amount_unit",
					"name": "unit",
					"type": "uint8"
				},
				{
					"internalType": "string",
					"name": "_type",
					"type": "string"
				},
				{
					"internalType": "address",
					"name": "sender",
					"type": "address"
				},
				{
					"internalType": "address",
					"name": "reciever",
					"type": "address"
				}
			],
			"stateMutability": "view",
			"type": "function"
		}
	]
}